:020000040800F2
:1000000088100020450100082F1B0008711500080A
:100010002D1B00088D010008D71D000800000000FE
:100020000000000000000000000000005701000870
:100030008F010008000000005B010008511B000850
:100040005F0100085F0100085F0100085F01000810
:100050005F0100085F0100085F0100085F01000800
:100060005F0100085F0100085F0100085F010008F0
:100070005F0100085F0100085F0100085F010008E0
:100080005F0100085F0100085F0100085F010008D0
:100090005F0100085F0100085F0100085F010008C0
:1000A0005F0100085F0100085F0100085F010008B0
:1000B0005F0100085F0100085F010008811500086A
:1000C000751500085F0100085F0100085F01000866
:1000D0005F0100085F0100085F0100085F01000880
:1000E0005F0100085F0100085F0100085F01000870
:1000F0005F0100085F0100085F0100085F01000860
:100100005F0100085F0100085F0100085F0100084F
:100110005F0100085F0100085F0100085F0100083F
:100120005F0100085F0100085F0100085F0100082F
:10013000DFF80CD000F018F800480047411E000816
:10014000881000200648804706480047FEE7FEE783
:10015000FEE7FEE7FEE7FEE7FEE7FEE7FEE7FEE777
:10016000BD1B000831010008064C074D06E0E068A1
:1001700040F0010394E8070098471034AC42F6D3EE
:10018000FFF7DAFFAC1E0008CC1E0008FEE7FEE712
:1001900031B500F011F9044600F00EF90099001B8A
:1001A0008842F9D338BD00002DE9F84F0023002420
:1001B000DFF8DC914FF00F0809F1040A0AF1040B93
:1001C0000BF1040E0127A7400A683A40BA4275D1E4
:1001D000DFF8C0C14D68A5EB0C0665452BD00DDCE2
:1001E000032D34D005DC35B3012D19D0022D2FD1CC
:1001F0001BE0112D16D0122D2AD119E0B6F5881F5B
:1002000019D006DCB6F5803F15D0B6F5801F1FD19A
:1002100011E0B6F5001F0ED0B6F5041F18D10AE0A4
:10022000CB6815E0CB681B1D12E0CB6808330FE0EC
:10023000CB680C330CE08B6823B1012B04D008236E
:10024000476105E0042303E00823076100E0002381
:10025000FF2A01D8054601E000F1040502D84FEA63
:10026000840603E0A4F108064FEA86062F6808FA20
:1002700006FC27EA0C0703FA06F647EA06072F6092
:100280004D68ED007ED5444DAE6946F00106AE6185
:10029000AD6905F001050095404D24F0030677197E
:1002A000BE68A5072D0F08FA05FC26EA0C06DFF844
:1002B000F0C0604503D14FF0000C25E062E0DFF8AC
:1002C000E4C0604502D14FF0010C1DE0DFF8D8C05A
:1002D000604502D14FF0020C16E0DFF8D0C0604557
:1002E00002D14FF0030C0FE0DFF8C4C0604502D12B
:1002F0004FF0040C08E0DFF8BCC0604502D14FF0BD
:10030000050C01E04FF0060C0CFA05FC4CEA060C5B
:10031000C7F808C04D68ED0305D5D9F8005015435E
:10032000C9F8005004E0D9F800509543C9F80050CE
:100330004D68AD0305D5DAF800501543CAF80050F2
:1003400004E0DAF800509543CAF800504D68ED0219
:1003500005D5DBF800501543CBF8005004E0DBF87E
:1003600000509543CBF800504D68AD0205D5DEF83E
:1003700000501543CEF8005004E0DEF800509543DD
:10038000CEF80050641C102CFFF41CAFBDE8F88FB1
:100390000004014000001110001002400000014064
:1003A00000080140000C0140001001400014014011
:1003B00000180140001C014001480068704700001F
:1003C0000400002010B5044620684169C1F30021F3
:1003D0004268C2F3002200290ED0012A0CD1A16B81
:1003E00041F00101A163416921F4807141612068FC
:1003F000016841F40041016020684169C1F3402176
:100400004268C2F3002249B1012A07D1A16B41F031
:100410000201A163416921F40071416120684169D1
:10042000C1F380214268C2F30022C1B1012A16D172
:1004300094F83620638D94F83510202A02D10BB938
:10044000212917D0A16B41F00401A163016841F497
:10045000007101602068416921F480614161206878
:100460004169C1F3C0214268C2F3002271B1012A7F
:1004700004D00BE0204601F0FEF9F0E7A16B41F05B
:100480000801A163416921F400614161A06B00286A
:100490000AD0202084F835002068016821F400612A
:1004A0000160204600F096F810BD30B490F8362078
:1004B0000168102A15D090F83620402A11D04A69D8
:1004C000C2F340034A68C2F340224C69C4F30014EB
:1004D0008D69C5F380050BB1012A3AD0012C3BD0C0
:1004E0003CE08A69D243520719D44A69C2F3C01367
:1004F0004A68C2F380244A69C2F380024968C1F3A2
:10050000402113B1012C00D132B1012A60D101295F
:100510005ED130BC01F036B930BC01F05AB94A693D
:10052000C2F380134A68C2F380244A69C2F380028E
:100530004968C1F3402113B1012C00D132B1012A25
:1005400046D1012944D130BC01F058B830BC01F08B
:100550009FB830BC01F088B9012A11D0012D12D00A
:100560004A69C2F380134A68C2F380244A69C2F31D
:1005700080024968C1F3402103B3012C1DD01DE066
:1005800030BC01F08FB94A69C2F3C0134A68C2F3A4
:1005900080244A69C2F380024968C1F3402113B143
:1005A000012C00D132B1012A12D1012910D130BC65
:1005B00001F03EB930BC01F049B932B1012A07D18E
:1005C000012905D130BC01F017B930BC01F022B9C6
:1005D00030BC70477047000070B50446002C04D052
:1005E00094F83500002510B106E0012070BD84F8B4
:1005F0003450204600F0D6F8242084F835002068D6
:10060000016821F00101016000F0FAFA01461B487F
:10061000B1FBF0F022685060194B62689A4201D831
:10062000401C07E04FF4967250434FF47A72B0FBCF
:10063000F2F0401C22681062204600F0A7FF2168FB
:10064000C861D4E90701084321680860D4E90310B0
:10065000084321688860D4E9050108432168C8601F
:100660002068016841F001010160A563202084F841
:10067000350084F83650002070BD000040420F0065
:10068000A0860100704770472DE9F8430446DDF865
:100690002080894616461D4694F83500202802D051
:1006A0000220BDE8F88356B14DB142F21073012229
:1006B0003A49204601F036F918B10220F1E701204D
:1006C000EFE794F8340001281CD0012084F83400AE
:1006D0002068016821F400610160212084F8350060
:1006E000102084F836000027A7634246494620467A
:1006F00001F002F860B1A06B042805D084F83470D2
:100700000320CEE70220CCE784F834700120C8E74C
:10071000206841698069009021E04146204601F04F
:10072000A1F958B1A06B042801D00320B9E72068D3
:10073000016841F4007101600120B2E7216816F8F8
:10074000010B08616D1EADB220684169C9434907BC
:1007500005D425B116F8011B01616D1EADB2002D47
:10076000DBD14146204601F0B6F858B1A06B042811
:1007700001D0032095E72068016841F40071016011
:1007800001208EE72068016841F40071016020209B
:1007900084F8350084F83470002082E702001000ED
:1007A0007047704700B585B00068104988421AD17B
:1007B0000F48C16941F40011C161C16901F4001120
:1007C0000091816941F008018161806900F00800B1
:1007D0000090C0200190122002900320049001A9F3
:1007E0000448FFF7E1FC05B000BD000000540040E4
:1007F00000100240000C0140704770470248016839
:10080000491C0160704700000400002010B5074833
:10081000016841F010010160032000F069F8002038
:1008200000F006F800F016F8002010BD002002408D
:1008300010B5044600F0CAF94FF47A72B0FBF2F03A
:1008400000F0B5FD00222146501E00F031F80020D6
:1008500010BD000008B51548816941F001018161B2
:10086000806900F001000090052000F041F80022AE
:1008700011466FF00B0000F01BF8002211466FF0DC
:100880000A0000F015F8002211466FF0090000F090
:100890000FF800221146101F00F00AF80022BDE8F0
:1008A00008401146501E00F003B80000001002403E
:1008B000F0B40D460D4B1B68C3F30223C3F10704CC
:1008C000042C00D90424191D072901D2002300E0BB
:1008D000DB1E012606FA04F1491E294099409E407C
:1008E000761E16403143F0BC01F022B90CED00E059
:1008F00000F00701054A10684FF6FF03184040EA70
:100900000120034908431060704700000CED00E02F
:100910000000FA052DE9F04704460F46DFF8A492DF
:10092000D9F80000A84D00F0070101204304460655
:100930004FF0020C41F28838B9426FD2D9F800105A
:1009400021F007013943C9F80010D9F8001001F06F
:100950000701B94201D0BDE8F0872178890705D5A4
:100960006968A26821F0F001114369602178C90724
:1009700061D0616801290BD002291FD09CFAACF22A
:10098000B2FA82F242F0200252092DD02A682CE0FD
:1009900093FAA3F2B2FA82F242F02002520901D095
:1009A0002A6800E06A6A93FAA3F3B3FA83F303F0C8
:1009B0001F039840024223D10120CCE796FAA6F209
:1009C000B2FA82F242F02002520901D02A6800E015
:1009D0006A6A96FAA6F3B3FA83F303F01F0398400A
:1009E00002420DD10120B6E76A6A9CFAACF3B3FA71
:1009F00083F303F01F039840024201D10120AAE7CC
:100A0000686820F0030008436860FFF7D5FC0646DD
:100A1000606801280AD0022815D021E025E0FFF700
:100A2000CBFC801B404501D9032094E76868C0F3E4
:100A300081000128F3D1ADE0FFF7BEFC801B4045EB
:100A400001D9032087E76868C0F381000228F3D149
:100A5000A0E0FFF7B1FC801B404501D903207AE7F5
:100A6000686810F00C0FF4D194E02178890705D55F
:100A70006968A26821F0F001114369602178C90713
:100A800079D0616801290BD002291FD09CFAACF201
:100A9000B2FA82F242F0200252092DD02A682CE0EC
:100AA00093FAA3F2B2FA82F242F02002520901D084
:100AB0002A6800E06A6A93FAA3F3B3FA83F303F0B7
:100AC0001F039840024223D1012044E796FAA6F280
:100AD000B2FA82F242F02002520901D02A6800E004
:100AE0006A6A96FAA6F3B3FA83F303F01F039840F9
:100AF00002420DD101202EE76A6A9CFAACF3B3FAE8
:100B000083F303F01F039840024201D1012022E742
:100B1000686820F0030008436860FFF74DFC064654
:100B20006068012809D0022814D020E0FFF744FCB7
:100B3000801B404501D903200DE76868C0F38100A0
:100B40000128F3D117E0FFF737FC801B404501D99E
:100B5000032000E76868C0F381000228F3D10AE0AF
:100B6000FFF72AFC801B404501D90320F3E66868A3
:100B700010F00C0FF4D1D9F8000020F00700384332
:100B8000C9F80000D9F8000000F00700B84201D011
:100B90000120E0E62078400705D56868E16820F488
:100BA000E060084368602078000706D5686821691E
:100BB00020F4605040EAC10068600020FFF738FE72
:100BC0000020C8E6002002400010024000B500F0FE
:100BD00043F808494968F02292FAA2F201F0F001C4
:100BE000B2FA82F2D140044A515CC840034908601D
:100BF00000BD0000001002409C1E00080000002004
:100C000000B5FFF7E3FF074949684FF4E06292FA45
:100C1000A2F201F4E061B2FA82F2D140024A515CE0
:100C2000C84000BD001002409C1E000800B5FFF740
:100C3000CDFF074949684FF4605292FAA2F201F4DD
:100C40006051B2FA82F2D140024A515CC84000BD04
:100C5000001002409C1E000810B585B01AA0D0E913
:100C60000031D0E90220CDE90131CDE903201AA0FD
:100C700000680090194B5968194801F00C02042AC9
:100C80001DD0082A1BD14FF4701494FAA4F401F477
:100C90007012B4FA84F4E24001ACA25CC90310D52E
:100CA00059684FF4003393FAA3F301F40031B3FA17
:100CB00083F3D9401DF80110B0FBF1F0504305B0AB
:100CC00010BD08485043FAE7020304050607080967
:100CD0000A0B0C0D0E0F1010010200000010024054
:100CE00000127A0000093D002DE9F84F0446F94D45
:100CF00020784FF00106C00775D068687704C0F30C
:100D00008100012807D06868C0F3810002281DD146
:100D10006868C0031AD597FAA7F0B0FA80F040F0DF
:100D20002000400901D0286800E0686A97FAA7F11E
:100D3000B1FA81F101F01F0206FA02F1084252D025
:100D4000606800284FD10120BDE8F88F286820F4A2
:100D500080302860286820F480202860FFF72CFB72
:100D6000804607E0FFF728FBA0EB0800642801D9C4
:100D70000320E9E797FAA7F0B0FA80F040F02000EE
:100D8000400901D0286800E0686A97FAA7F1B1FA33
:100D900081F101F01F0106FA01F10842E2D1606819
:100DA000B0F5803F11D0A8B1B0F5A02F1CD02868B5
:100DB00020F480302860286820F480202860606853
:100DC000C8B3FFF7F9FA80461FE0286840F4803086
:100DD0002860F4E7286820F480302860286820F430
:100DE00080202860EBE748E0286840F480202860F5
:100DF000286840F480302860E1E7FFF7DDFAA0EBD7
:100E00000800642801D903209EE797FAA7F0B0FAFA
:100E100080F040F02000400901D0286800E0686AB6
:100E200097FAA7F1B1FA81F101F01F0106FA01F179
:100E30000842E2D021E0FFE7FFF7BEFA804607E074
:100E4000FFF7BAFAA0EB0800642801D903207BE77A
:100E500097FAA7F0B0FA80F040F02000400901D0E6
:100E6000286800E0686A97FAA7F1B1FA81F101F009
:100E70001F0106FA01F10842E2D12078DFF858821A
:100E800080074FF0000B4FF0020732D568684FF033
:100E9000F80A10F00C0F07D06868C0F38100022830
:100EA00028D16868C00325D497FAA7F0B0FA80F07B
:100EB00040F02000400901D0286800E0686A97FAF5
:100EC000A7F1B1FA81F101F01F0106FA01F1084220
:100ED00004D02069012801D0012035E728689AFA5A
:100EE000AAF26169B2FA82F220F0F8009140084358
:100EF00028605CE0206990B396FAA6F0B0FA80F022
:100F000048F82060FFF758FA814607E0FFF754FAE7
:100F1000A0EB0900022801D9032015E797FAA7F0F2
:100F2000B0FA80F040F02000400901D0286800E0CD
:100F3000686A97FAA7F1B1FA81F101F01F0106FA88
:100F400001F10842E2D028689AFAAAF26169B2FA7D
:100F500082F220F0F80091400843286027E0FFE784
:100F600096FAA6F0B0FA80F048F820B0FFF724FA1D
:100F7000814607E0FFF720FAA0EB0900022801D91B
:100F80000320E1E697FAA7F0B0FA80F040F02000E5
:100F9000400901D0286800E0686A97FAA7F1B1FA21
:100FA00081F101F01F0106FA01F10842E2D1207837
:100FB000000770D5A069C0B396FAA6F0B0FA80F029
:100FC00008EB8000C0F88064FFF7F6F9814607E07F
:100FD000FFF7F2F9A0EB0900022801D90320B3E6DC
:100FE00097FAA7F0B0FA80F040F06000B6EB501F1F
:100FF00001D128680BE097FAA7F0B0FA80F040F032
:101000006000B7EB501F01D1286A00E0686A97FAC8
:10101000A7F1B1FA81F101F01F0206FA02F10842CC
:10102000D6D00120FFF7B4F835E0FFE796FAA6F036
:10103000B0FA80F008EB8000C0F880B4FFF7BCF98C
:10104000814607E0FFF7B8F9A0EB0900022801D9B3
:10105000032079E697FAA7F0B0FA80F040F060003C
:10106000B6EB501F01D128680BE097FAA7F0B0FA51
:1010700080F040F06000B7EB501F01D1286A00E01B
:10108000686A97FAA7F1B1FA81F101F01F0206FA36
:1010900002F10842D6D12078400770D5E86940F0C7
:1010A0008050E861E86900F080500090DFF82CA0E3
:1010B000DAF8000040F48070CAF80000FFF77CF90D
:1010C00081460DE0FFF778F9A0EB0900642807D905
:1010D000032039E600100240000042420070004048
:1010E000DAF80000C005EDD5286A20F0010028627A
:1010F000286A20F004002862FFF75EF9814641F279
:10110000883A07E0FFF758F9A0EB0900504501D9EC
:10111000032019E697FAA7F0B0FA80F040F04000FB
:10112000B6EB501F01D128680BE097FAA7F0B0FA90
:1011300080F040F04000B7EB501F01D1286A00E07A
:10114000686A97FAA7F1B1FA81F101F01F0106FA76
:1011500001F10842D6D1E068012811D0A8B10528D4
:101160001CD0286A20F001002862286A20F00400C0
:101170002862E068C8B3FFF71FF981461FE06EE000
:10118000286A40F001002862F3E7286A20F0010095
:101190002862286A20F004002862EAE7286A40F002
:1011A00004002862286A40F001002862E1E7FFF7A6
:1011B00003F9A0EB0900504501D90320C4E597FAD3
:1011C000A7F0B0FA80F040F04000B6EB501F01D11C
:1011D00028680CE097FAA7F0B0FA80F040F04000E1
:1011E000B7EB501F02D1286A01E00BE0686A97FA5A
:1011F000A7F1B1FA81F101F01F0206FA02F10842EB
:10120000D5D02CE0FFF7D8F8814607E0FFF7D4F8F7
:10121000A0EB0900504501D9032095E597FAA7F006
:10122000B0FA80F040F04000B6EB501F01D12868C2
:101230000BE097FAA7F0B0FA80F040F04000B7EB6F
:10124000501F01D1286A00E0686A97FAA7F1B1FA45
:1012500081F101F01F0206FA02F10842D6D1E069DD
:1012600080B36968C1F38101022970D04FF08079A1
:101270004FF00077022809D099FAA9F0B0FA80F06F
:1012800048F820B0FFF798F8044668E099FAA9F00A
:10129000B0FA80F048F820B0FFF78EF8824607E0F9
:1012A000FFF78AF8A0EB0A00022801D903204BE5DA
:1012B00097FAA7F0B0FA80F040F02000400902D081
:1012C000286801E060E0686A97FAA7F1B1FA81F155
:1012D00001F01F0106FA01F10842E1D1206AB0F5E0
:1012E000803F05D16868A16820F400300843686039
:1012F000D4E908010843696821F47411084368605F
:1013000099FAA9F0B0FA80F048F82060FFF754F895
:10131000044606E0FFF750F8001B022801D903201D
:1013200012E597FAA7F0B0FA80F040F020004009EB
:1013300001D0296800E0696A97FAA7F0B0FA80F056
:1013400000F01F0006FA00F00142E3D01CE01DE0AF
:10135000FFF732F8001B022801D90320F4E497FAC2
:10136000A7F0B0FA80F040F02000400901D02968D1
:1013700000E0696A97FAA7F0B0FA80F000F01F0069
:1013800006FA00F00142E3D10020DDE40120DBE4B5
:101390004FF0E021042804D0086920F0040008611F
:1013A0007047086940F0040008617047704710B545
:1013B000401EB0F1807F01D3012010BD4FF0E0242A
:1013C00060610F21601700F0B3FB0020A0610720CF
:1013D0002061002010BD10B5FFF7E8FF10BD70B50B
:1013E0000446002C04D094F83900002510B106E022
:1013F000012070BD84F83850204600F021F802200A
:1014000084F839002068C16821F40051C160204689
:1014100000F0F8FB2068016921F490410161206827
:10142000416921F02A0141612068C16841F40051FD
:10143000C160E563012084F83900002070BD000020
:1014400010B586B00068114988421DD110488169E5
:1014500041F480418161806900F4804001904FF443
:10146000007002900220039003200590094C02A90D
:101470002046FEF799FE2115029100210391049167
:1014800002A92046FEF790FE06B010BD00380140CC
:1014900000100240000801402DE9F04104460D46CD
:1014A000984694F83900012804D0222802D002205E
:1014B000BDE8F0819DB192B194F83800012810D0B8
:1014C000012684F838600027E76394F83900222861
:1014D00009D0122084F83900A284E2842EE0012091
:1014E000E6E70220E4E7322084F83900F4E7401E02
:1014F000E084A068B0F5805F08D0434600228021D8
:10150000204600F005FCA8B10320D1E743460022A5
:101510008021204600F0FCFB08B10320C8E72888A2
:101520002168C0F308004860206908B16D1C05E01F
:10153000AD1C03E0216815F8010B4860E08C002821
:10154000D5D1434600224021204600F0E1FB08B1FE
:101550000320ADE794F83900322805D084F83960CB
:1015600084F838700020A3E7222084F83900F7E7D8
:10157000FEE700000148FEF725BF00004C000020F8
:101580000148FEF792BF00004C000020104B42685B
:101590009A4208D85000B1FBF0F0C0F30B010429C7
:1015A00000D204207047806858B102EBC20000EB03
:1015B0000210B1FBF0F040F440400105F2D10120EF
:1015C000704702EB4200B1FBF0F040F40040F4E75A
:1015D000A086010001684A69D24352050CD44A69C9
:1015E00022F480624A61042134304160202141703C
:1015F00000210170012070470020704710B5428D16
:101600000168032A0CD0428D022A17D00A69416A68
:101610004B1C43620A70418D491E4185002010BD5C
:101620000A6822F480620A6001680A69416A4B1CF8
:1016300043620A70418D491E4185EFE74A6822F4F2
:1016400040724A6001680A6842F400720A600168E8
:101650000A69416A4B1C43620A70418D491E4185EB
:1016600001680A69416A4B1C43620A70418D491E38
:10167000418590F836202021402A04D080F835108A
:10168000FFF700F8CAE780F83510FFF789F8C5E7DB
:1016900010B5428D0168032A08D90A69416A4B1CBA
:1016A00043620A70418D491E418519E0022A19D012
:1016B000032A17D04A6822F4E0624A6001680A6986
:1016C000416A4B1C43620A70418D491E418590F866
:1016D00036202021402A0AD080F83510FEF7D2FFAC
:1016E000002010BD486820F480604860F8E780F86A
:1016F0003510FFF755F8F3E770B504460D4616466A
:101700002068016841F480710160334600224FF087
:101710000111204600F006F908B1032070BD2069D0
:10172000B0F5804F11D005F44070F02141EAD0109F
:101730002168086132461249204600F04AF958B142
:10174000A06B042806D0032070BD216805F0FE00C0
:10175000086104E0012070BD2168E8B20861084911
:101760003246891F204600F034F930B1A06B0428BE
:1017700001D0032070BD012070BD002070BD0000AD
:101780000800010010B5428D0168002A08D0426AA5
:10179000531C436212780A61418D491E418511E054
:1017A0004A6822F4E0624A6001680A6842F4007202
:1017B0000A6090F836202021402A05D080F83510A4
:1017C000FEF761FF002010BD80F83510FEF7E9FF3D
:1017D000F8E7428D0168002A09D0426A531C43622F
:1017E00012780A61418D491E418500207047486882
:1017F00020F480604860F8E7418D002908D0016836
:101800000A69416A4B1C43620A70418D491E418539
:1018100000207047418D002908D001680A69416A9B
:101820004B1C43620A70418D491E41850020704760
:10183000418D002908D0416A4A1C42620268097839
:101840001161418D491E418500207047418D00295D
:1018500008D0416A4A1C4262026809781161418DD0
:10186000491E41850020704708B5006841698069BC
:101870000090002008BD10B501684A6822F4E062BB
:101880004A6001684A6922F480624A6101680A6814
:1018900022F480620A60202180F83510FEF7ADFF47
:1018A000002010BD08B501684A6822F4E0624A6071
:1018B00001684A690A6842F001020A600092016800
:1018C0000A6822F480620A60202180F83510FEF751
:1018D00093FF002008BD70B504460D46FEF76CFD71
:1018E000064618E02046FFF775FE08B1012070BDDE
:1018F000681C10D025B1FEF75FFD801BA8420AD9F5
:101900003434606840F02000606020206070002067
:101910002070032070BD20684069C0434007E1D4B7
:10192000002070BD2DE9F05F04460E4693461D462B
:10193000FEF742FD07464FF000094FF0200AC6F3BC
:101940000748BBF1000F0FD02FE0681C0CD025B169
:10195000FEF732FDC01BA84206D984F835A084F8F2
:1019600034900320BDE8F09FB8F1010F07D0206844
:10197000806926EA00000004000C20D0E5E720681A
:10198000406926EA00000004000C18D0DDE7681C5E
:101990000BD025B1FEF710FDC01BA84205D984F875
:1019A00035A084F834900320DCE7B8F1010F08D0AB
:1019B0002068806926EA00000004000CE7D00020BF
:1019C000D0E72068406926EA00000004000CDED061
:1019D000F5E72DE9F04704460E461546FEF7ECFC08
:1019E00007464FF000094FF0200AC6F3074825E0EC
:1019F00020684069C043400512D42068016841F462
:101A0000007101602068416921F480614161042016
:101A1000A06384F835A084F834900120BDE8F087F5
:101A2000681C0BD025B1FEF7C7FCC01BA84205D926
:101A300084F835A084F834900320EFE7B8F1010F63
:101A400008D02068806926EA00000004000CCFD18D
:101A50000020E3E72068406926EA00000004000C4B
:101A6000F6D0C5E770B504460D46FEF7A5FC064660
:101A700018E02046FFF7AEFD08B1012070BD681CDC
:101A800010D025B1FEF798FC801BA8420AD9343447
:101A9000606840F0200060602020607000202070AE
:101AA000032070BD20684069C0430006E1D40020D7
:101AB00070BD000082B00D48816941F00401816170
:101AC000806900F0040001900A48094901604FF460
:101AD000E131416000218160C16001610C224261FD
:101AE0008161C16102B0FFF77ABC000000100240C2
:101AF000003801400C0000200A48094901600A49E9
:101B000041600021816040F20F32C2604FF4804298
:101B100002614161FF228261C1610162FEF75CBD29
:101B2000005400404C000020801A0600FEE7704779
:101B30000907090E002806DA00F00F0000F1E02086
:101B400080F8141D704700F1E02080F80014704701
:101B500010B5FEF753FEBDE81040FFF73CBC30B5B2
:101B60008FB0012005900004069000240794022500
:101B70000C950D904FF4E0100E9005A8FFF7B4F807
:101B80000F200090019502946802039004940221B2
:101B90006846FEF7BFFEFFF719F84FF47A71B0FB05
:101BA000F1F0FFF704FC0420FFF7F2FB00221146DE
:101BB000501EFEF77DFE0FB030BD00000D480168DD
:101BC00041F00101016041680B4A11404160016828
:101BD0000A4A11400160016821F4802101604168D6
:101BE00021F4FE0141604FF41F0181600449C003EC
:101BF00008607047001002400000FFF8FFFFF6FE8B
:101C000008ED00E02DE9F041044620680169E26832
:101C100021F4405111430161A168206901436069C9
:101C200001432068C26841F20C639A430A43C260D0
:101C300020684169A26921F440711143416133492F
:101C4000206864253226884230D1FEF7EFFF00EB92
:101C5000C00101EB001061688900B0FBF1F0B0FB3E
:101C6000F5F7FEF7E3FF00EBC00101EB0010616840
:101C70008900B0FBF1F8FEF7D9FF00EBC00101EBE2
:101C8000001061688900B0FBF1F0B0FBF5F06FF077
:101C90001801484308EB800006EB0010B0FBF5F09C
:101CA000216867F31F108860BDE8F081FEF7A8FF88
:101CB00000EBC00101EB001061688900B0FBF1F09E
:101CC000B0FBF5F7FEF79CFF00EBC00101EB001045
:101CD00061688900B0FBF1F8FEF792FF00EBC001EC
:101CE00001EB001061688900B0FBF1F0B0FBF5F08A
:101CF0006FF01801484308EB800006EB0010B0FBC2
:101D0000F5F0216867F31F108860CDE700380140C7
:101D10002DE9F04704460F4692461D46FEF74CFB60
:101D200006464FF000084FF00109BAF1000F23D02A
:101D30004AE0681C20D025B1FEF73EFB801BA8427C
:101D40001AD92068C16821F08001C1602068C1688B
:101D500021F02001C1602068C16821F48071C16058
:101D60002068416921F00101416184F8399084F8CB
:101D700038800320BDE8F0872068006837EA00005B
:101D8000D7D126E0681C1FD025B1FEF715FB801BBC
:101D9000A84219D92068C16821F08001C16020687B
:101DA000C16821F02001C1602068C16821F4807100
:101DB000C1602068416921F00101416184F83990D6
:101DC00084F838800320D5E72068006837EA0000EF
:101DD000D8D00020CEE7FEE7014A024900F013B850
:101DE000291E00080800002002E008C8121F08C1D0
:101DF000002AFAD170477047002001E001C1121F8C
:101E0000002AFBD170472DE9F04116460F460446E3
:101E1000002503E03946B047641C6D1C207800287B
:101E2000F8D12846BDE8F08113B54FF6FF730122C3
:101E300069460248FFF730FB00981CBD0C000020EB
:101E40001CB500200190FEF7E1FCFFF788FEFFF7CC
:101E500031FEFFF751FE4FF6FF7440F20F354FF49D
:101E60007A76012301AA294607480094FEF70CFC64
:101E700006A0FFF7B1FF3046FEF78AF99DF804206F
:101E8000521C0192EDE700004C000020B7A2CBCD20
:101E9000CFFBCFA2B3C9B9A60A0000000000000022
:101EA000010203040102030406070809CC1E00080E
:101EB000000000200C000000E81D0008D81E0008EB
:101EC0000C0000207C100000F81D000800A24A044D
:081ED00000000000000000000A
:0400000508000131BD
:00000001FF
